{
  "contractName": "GameItem",
  "abi": [
    {
      "inputs": [],
      "stateMutability": "nonpayable",
      "type": "constructor"
    },
    {
      "anonymous": false,
      "inputs": [
        {
          "indexed": true,
          "internalType": "address",
          "name": "owner",
          "type": "address"
        },
        {
          "indexed": true,
          "internalType": "address",
          "name": "approved",
          "type": "address"
        },
        {
          "indexed": true,
          "internalType": "uint256",
          "name": "tokenId",
          "type": "uint256"
        }
      ],
      "name": "Approval",
      "type": "event"
    },
    {
      "anonymous": false,
      "inputs": [
        {
          "indexed": true,
          "internalType": "address",
          "name": "owner",
          "type": "address"
        },
        {
          "indexed": true,
          "internalType": "address",
          "name": "operator",
          "type": "address"
        },
        {
          "indexed": false,
          "internalType": "bool",
          "name": "approved",
          "type": "bool"
        }
      ],
      "name": "ApprovalForAll",
      "type": "event"
    },
    {
      "anonymous": false,
      "inputs": [
        {
          "indexed": true,
          "internalType": "address",
          "name": "from",
          "type": "address"
        },
        {
          "indexed": true,
          "internalType": "address",
          "name": "to",
          "type": "address"
        },
        {
          "indexed": true,
          "internalType": "uint256",
          "name": "tokenId",
          "type": "uint256"
        }
      ],
      "name": "Transfer",
      "type": "event"
    },
    {
      "inputs": [
        {
          "internalType": "address",
          "name": "to",
          "type": "address"
        },
        {
          "internalType": "uint256",
          "name": "tokenId",
          "type": "uint256"
        }
      ],
      "name": "approve",
      "outputs": [],
      "stateMutability": "nonpayable",
      "type": "function"
    },
    {
      "inputs": [
        {
          "internalType": "address",
          "name": "owner",
          "type": "address"
        }
      ],
      "name": "balanceOf",
      "outputs": [
        {
          "internalType": "uint256",
          "name": "",
          "type": "uint256"
        }
      ],
      "stateMutability": "view",
      "type": "function"
    },
    {
      "inputs": [
        {
          "internalType": "uint256",
          "name": "tokenId",
          "type": "uint256"
        }
      ],
      "name": "getApproved",
      "outputs": [
        {
          "internalType": "address",
          "name": "",
          "type": "address"
        }
      ],
      "stateMutability": "view",
      "type": "function"
    },
    {
      "inputs": [
        {
          "internalType": "address",
          "name": "owner",
          "type": "address"
        },
        {
          "internalType": "address",
          "name": "operator",
          "type": "address"
        }
      ],
      "name": "isApprovedForAll",
      "outputs": [
        {
          "internalType": "bool",
          "name": "",
          "type": "bool"
        }
      ],
      "stateMutability": "view",
      "type": "function"
    },
    {
      "inputs": [],
      "name": "name",
      "outputs": [
        {
          "internalType": "string",
          "name": "",
          "type": "string"
        }
      ],
      "stateMutability": "view",
      "type": "function"
    },
    {
      "inputs": [
        {
          "internalType": "uint256",
          "name": "tokenId",
          "type": "uint256"
        }
      ],
      "name": "ownerOf",
      "outputs": [
        {
          "internalType": "address",
          "name": "",
          "type": "address"
        }
      ],
      "stateMutability": "view",
      "type": "function"
    },
    {
      "inputs": [
        {
          "internalType": "address",
          "name": "from",
          "type": "address"
        },
        {
          "internalType": "address",
          "name": "to",
          "type": "address"
        },
        {
          "internalType": "uint256",
          "name": "tokenId",
          "type": "uint256"
        }
      ],
      "name": "safeTransferFrom",
      "outputs": [],
      "stateMutability": "nonpayable",
      "type": "function"
    },
    {
      "inputs": [
        {
          "internalType": "address",
          "name": "from",
          "type": "address"
        },
        {
          "internalType": "address",
          "name": "to",
          "type": "address"
        },
        {
          "internalType": "uint256",
          "name": "tokenId",
          "type": "uint256"
        },
        {
          "internalType": "bytes",
          "name": "_data",
          "type": "bytes"
        }
      ],
      "name": "safeTransferFrom",
      "outputs": [],
      "stateMutability": "nonpayable",
      "type": "function"
    },
    {
      "inputs": [
        {
          "internalType": "address",
          "name": "operator",
          "type": "address"
        },
        {
          "internalType": "bool",
          "name": "approved",
          "type": "bool"
        }
      ],
      "name": "setApprovalForAll",
      "outputs": [],
      "stateMutability": "nonpayable",
      "type": "function"
    },
    {
      "inputs": [
        {
          "internalType": "bytes4",
          "name": "interfaceId",
          "type": "bytes4"
        }
      ],
      "name": "supportsInterface",
      "outputs": [
        {
          "internalType": "bool",
          "name": "",
          "type": "bool"
        }
      ],
      "stateMutability": "view",
      "type": "function"
    },
    {
      "inputs": [],
      "name": "symbol",
      "outputs": [
        {
          "internalType": "string",
          "name": "",
          "type": "string"
        }
      ],
      "stateMutability": "view",
      "type": "function"
    },
    {
      "inputs": [
        {
          "internalType": "uint256",
          "name": "tokenId",
          "type": "uint256"
        }
      ],
      "name": "tokenURI",
      "outputs": [
        {
          "internalType": "string",
          "name": "",
          "type": "string"
        }
      ],
      "stateMutability": "view",
      "type": "function"
    },
    {
      "inputs": [
        {
          "internalType": "address",
          "name": "from",
          "type": "address"
        },
        {
          "internalType": "address",
          "name": "to",
          "type": "address"
        },
        {
          "internalType": "uint256",
          "name": "tokenId",
          "type": "uint256"
        }
      ],
      "name": "transferFrom",
      "outputs": [],
      "stateMutability": "nonpayable",
      "type": "function"
    },
    {
      "inputs": [
        {
          "internalType": "address",
          "name": "_wallet",
          "type": "address"
        },
        {
          "internalType": "string",
          "name": "_tokenURI",
          "type": "string"
        }
      ],
      "name": "mint",
      "outputs": [
        {
          "internalType": "uint256",
          "name": "",
          "type": "uint256"
        }
      ],
      "stateMutability": "nonpayable",
      "type": "function"
    }
  ],
  "bytecode": "0x60806040523480156200001157600080fd5b506040518060400160405280600c81526020017f4d656d6f727920546f6b656e00000000000000000000000000000000000000008152506040518060400160405280600381526020017f4d54540000000000000000000000000000000000000000000000000000000000815250816000908051906020019062000096929190620000b8565b508060019080519060200190620000af929190620000b8565b505050620001cd565b828054620000c69062000197565b90600052602060002090601f016020900481019282620000ea576000855562000136565b82601f106200010557805160ff191683800117855562000136565b8280016001018555821562000136579182015b828111156200013557825182559160200191906001019062000118565b5b50905062000145919062000149565b5090565b5b80821115620001645760008160009055506001016200014a565b5090565b7f4e487b7100000000000000000000000000000000000000000000000000000000600052602260045260246000fd5b60006002820490506001821680620001b057607f821691505b60208210811415620001c757620001c662000168565b5b50919050565b612c0c80620001dd6000396000f3fe608060405234801561001057600080fd5b50600436106100ea5760003560e01c806370a082311161008c578063b88d4fde11610066578063b88d4fde1461025b578063c87b56dd14610277578063d0def521146102a7578063e985e9c5146102d7576100ea565b806370a08231146101f157806395d89b4114610221578063a22cb4651461023f576100ea565b8063095ea7b3116100c8578063095ea7b31461016d57806323b872dd1461018957806342842e0e146101a55780636352211e146101c1576100ea565b806301ffc9a7146100ef57806306fdde031461011f578063081812fc1461013d575b600080fd5b6101096004803603810190610104919061196e565b610307565b60405161011691906119b6565b60405180910390f35b6101276103e9565b6040516101349190611a6a565b60405180910390f35b61015760048036038101906101529190611ac2565b61047b565b6040516101649190611b30565b60405180910390f35b61018760048036038101906101829190611b77565b610500565b005b6101a3600480360381019061019e9190611bb7565b610618565b005b6101bf60048036038101906101ba9190611bb7565b610678565b005b6101db60048036038101906101d69190611ac2565b610698565b6040516101e89190611b30565b60405180910390f35b61020b60048036038101906102069190611c0a565b61074a565b6040516102189190611c46565b60405180910390f35b610229610802565b6040516102369190611a6a565b60405180910390f35b61025960048036038101906102549190611c8d565b610894565b005b61027560048036038101906102709190611e02565b610a15565b005b610291600480360381019061028c9190611ac2565b610a77565b60405161029e9190611a6a565b60405180910390f35b6102c160048036038101906102bc9190611f26565b610bc9565b6040516102ce9190611c46565b60405180910390f35b6102f160048036038101906102ec9190611f82565b610c00565b6040516102fe91906119b6565b60405180910390f35b60007f80ac58cd000000000000000000000000000000000000000000000000000000007bffffffffffffffffffffffffffffffffffffffffffffffffffffffff1916827bffffffffffffffffffffffffffffffffffffffffffffffffffffffff191614806103d257507f5b5e139f000000000000000000000000000000000000000000000000000000007bffffffffffffffffffffffffffffffffffffffffffffffffffffffff1916827bffffffffffffffffffffffffffffffffffffffffffffffffffffffff1916145b806103e257506103e182610c94565b5b9050919050565b6060600080546103f890611ff1565b80601f016020809104026020016040519081016040528092919081815260200182805461042490611ff1565b80156104715780601f1061044657610100808354040283529160200191610471565b820191906000526020600020905b81548152906001019060200180831161045457829003601f168201915b5050505050905090565b600061048682610cfe565b6104c5576040517f08c379a00000000000000000000000000000000000000000000000000000000081526004016104bc90612095565b60405180910390fd5b6004600083815260200190815260200160002060009054906101000a900473ffffffffffffffffffffffffffffffffffffffff169050919050565b600061050b82610698565b90508073ffffffffffffffffffffffffffffffffffffffff168373ffffffffffffffffffffffffffffffffffffffff16141561057c576040517f08c379a000000000000000000000000000000000000000000000000000000000815260040161057390612127565b60405180910390fd5b8073ffffffffffffffffffffffffffffffffffffffff1661059b610d6a565b73ffffffffffffffffffffffffffffffffffffffff1614806105ca57506105c9816105c4610d6a565b610c00565b5b610609576040517f08c379a0000000000000000000000000000000000000000000000000000000008152600401610600906121b9565b60405180910390fd5b6106138383610d72565b505050565b610629610623610d6a565b82610e2b565b610668576040517f08c379a000000000000000000000000000000000000000000000000000000000815260040161065f9061224b565b60405180910390fd5b610673838383610f09565b505050565b61069383838360405180602001604052806000815250610a15565b505050565b6000806002600084815260200190815260200160002060009054906101000a900473ffffffffffffffffffffffffffffffffffffffff169050600073ffffffffffffffffffffffffffffffffffffffff168173ffffffffffffffffffffffffffffffffffffffff161415610741576040517f08c379a0000000000000000000000000000000000000000000000000000000008152600401610738906122dd565b60405180910390fd5b80915050919050565b60008073ffffffffffffffffffffffffffffffffffffffff168273ffffffffffffffffffffffffffffffffffffffff1614156107bb576040517f08c379a00000000000000000000000000000000000000000000000000000000081526004016107b29061236f565b60405180910390fd5b600360008373ffffffffffffffffffffffffffffffffffffffff1673ffffffffffffffffffffffffffffffffffffffff168152602001908152602001600020549050919050565b60606001805461081190611ff1565b80601f016020809104026020016040519081016040528092919081815260200182805461083d90611ff1565b801561088a5780601f1061085f5761010080835404028352916020019161088a565b820191906000526020600020905b81548152906001019060200180831161086d57829003601f168201915b5050505050905090565b61089c610d6a565b73ffffffffffffffffffffffffffffffffffffffff168273ffffffffffffffffffffffffffffffffffffffff16141561090a576040517f08c379a0000000000000000000000000000000000000000000000000000000008152600401610901906123db565b60405180910390fd5b8060056000610917610d6a565b73ffffffffffffffffffffffffffffffffffffffff1673ffffffffffffffffffffffffffffffffffffffff16815260200190815260200160002060008473ffffffffffffffffffffffffffffffffffffffff1673ffffffffffffffffffffffffffffffffffffffff16815260200190815260200160002060006101000a81548160ff0219169083151502179055508173ffffffffffffffffffffffffffffffffffffffff166109c4610d6a565b73ffffffffffffffffffffffffffffffffffffffff167f17307eab39ab6107e8899845ad3d59bd9653f200f220920489ca2b5937696c3183604051610a0991906119b6565b60405180910390a35050565b610a26610a20610d6a565b83610e2b565b610a65576040517f08c379a0000000000000000000000000000000000000000000000000000000008152600401610a5c9061224b565b60405180910390fd5b610a7184848484611165565b50505050565b6060610a8282610cfe565b610ac1576040517f08c379a0000000000000000000000000000000000000000000000000000000008152600401610ab89061246d565b60405180910390fd5b6000600660008481526020019081526020016000208054610ae190611ff1565b80601f0160208091040260200160405190810160405280929190818152602001828054610b0d90611ff1565b8015610b5a5780601f10610b2f57610100808354040283529160200191610b5a565b820191906000526020600020905b815481529060010190602001808311610b3d57829003601f168201915b505050505090506000610b6b6111c1565b9050600081511415610b81578192505050610bc4565b600082511115610bb6578082604051602001610b9e9291906124c9565b60405160208183030381529060405292505050610bc4565b610bbf846111d8565b925050505b919050565b600080610bd6600761127f565b9050610be2848261128d565b610bec81846112ab565b610bf6600761131f565b8091505092915050565b6000600560008473ffffffffffffffffffffffffffffffffffffffff1673ffffffffffffffffffffffffffffffffffffffff16815260200190815260200160002060008373ffffffffffffffffffffffffffffffffffffffff1673ffffffffffffffffffffffffffffffffffffffff16815260200190815260200160002060009054906101000a900460ff16905092915050565b60007f01ffc9a7000000000000000000000000000000000000000000000000000000007bffffffffffffffffffffffffffffffffffffffffffffffffffffffff1916827bffffffffffffffffffffffffffffffffffffffffffffffffffffffff1916149050919050565b60008073ffffffffffffffffffffffffffffffffffffffff166002600084815260200190815260200160002060009054906101000a900473ffffffffffffffffffffffffffffffffffffffff1673ffffffffffffffffffffffffffffffffffffffff1614159050919050565b600033905090565b816004600083815260200190815260200160002060006101000a81548173ffffffffffffffffffffffffffffffffffffffff021916908373ffffffffffffffffffffffffffffffffffffffff160217905550808273ffffffffffffffffffffffffffffffffffffffff16610de583610698565b73ffffffffffffffffffffffffffffffffffffffff167f8c5be1e5ebec7d5bd14f71427d1e84f3dd0314c0f7b2291e5b200ac8c7c3b92560405160405180910390a45050565b6000610e3682610cfe565b610e75576040517f08c379a0000000000000000000000000000000000000000000000000000000008152600401610e6c9061255f565b60405180910390fd5b6000610e8083610698565b90508073ffffffffffffffffffffffffffffffffffffffff168473ffffffffffffffffffffffffffffffffffffffff161480610eef57508373ffffffffffffffffffffffffffffffffffffffff16610ed78461047b565b73ffffffffffffffffffffffffffffffffffffffff16145b80610f005750610eff8185610c00565b5b91505092915050565b8273ffffffffffffffffffffffffffffffffffffffff16610f2982610698565b73ffffffffffffffffffffffffffffffffffffffff1614610f7f576040517f08c379a0000000000000000000000000000000000000000000000000000000008152600401610f76906125f1565b60405180910390fd5b600073ffffffffffffffffffffffffffffffffffffffff168273ffffffffffffffffffffffffffffffffffffffff161415610fef576040517f08c379a0000000000000000000000000000000000000000000000000000000008152600401610fe690612683565b60405180910390fd5b610ffa838383611335565b611005600082610d72565b6001600360008573ffffffffffffffffffffffffffffffffffffffff1673ffffffffffffffffffffffffffffffffffffffff168152602001908152602001600020600082825461105591906126d2565b925050819055506001600360008473ffffffffffffffffffffffffffffffffffffffff1673ffffffffffffffffffffffffffffffffffffffff16815260200190815260200160002060008282546110ac9190612706565b92505081905550816002600083815260200190815260200160002060006101000a81548173ffffffffffffffffffffffffffffffffffffffff021916908373ffffffffffffffffffffffffffffffffffffffff160217905550808273ffffffffffffffffffffffffffffffffffffffff168473ffffffffffffffffffffffffffffffffffffffff167fddf252ad1be2c89b69c2b068fc378daa952ba7f163c4a11628f55a4df523b3ef60405160405180910390a4505050565b611170848484610f09565b61117c8484848461133a565b6111bb576040517f08c379a00000000000000000000000000000000000000000000000000000000081526004016111b2906127ce565b60405180910390fd5b50505050565b606060405180602001604052806000815250905090565b60606111e382610cfe565b611222576040517f08c379a000000000000000000000000000000000000000000000000000000000815260040161121990612860565b60405180910390fd5b600061122c6111c1565b9050600081511161124c5760405180602001604052806000815250611277565b80611256846114c2565b6040516020016112679291906124c9565b6040516020818303038152906040525b915050919050565b600081600001549050919050565b6112a7828260405180602001604052806000815250611623565b5050565b6112b482610cfe565b6112f3576040517f08c379a00000000000000000000000000000000000000000000000000000000081526004016112ea906128f2565b60405180910390fd5b8060066000848152602001908152602001600020908051906020019061131a92919061185f565b505050565b6001816000016000828254019250508190555050565b505050565b600061135b8473ffffffffffffffffffffffffffffffffffffffff1661167e565b156114b5578373ffffffffffffffffffffffffffffffffffffffff1663150b7a02611384610d6a565b8786866040518563ffffffff1660e01b81526004016113a69493929190612967565b6020604051808303816000875af19250505080156113e257506040513d601f19601f820116820180604052508101906113df91906129c8565b60015b611465573d8060008114611412576040519150601f19603f3d011682016040523d82523d6000602084013e611417565b606091505b5060008151141561145d576040517f08c379a0000000000000000000000000000000000000000000000000000000008152600401611454906127ce565b60405180910390fd5b805181602001fd5b63150b7a0260e01b7bffffffffffffffffffffffffffffffffffffffffffffffffffffffff1916817bffffffffffffffffffffffffffffffffffffffffffffffffffffffff1916149150506114ba565b600190505b949350505050565b6060600082141561150a576040518060400160405280600181526020017f3000000000000000000000000000000000000000000000000000000000000000815250905061161e565b600082905060005b6000821461153c578080611525906129f5565b915050600a826115359190612a6d565b9150611512565b60008167ffffffffffffffff81111561155857611557611cd7565b5b6040519080825280601f01601f19166020018201604052801561158a5781602001600182028036833780820191505090505b5090505b60008514611617576001826115a391906126d2565b9150600a856115b29190612a9e565b60306115be9190612706565b60f81b8183815181106115d4576115d3612acf565b5b60200101907effffffffffffffffffffffffffffffffffffffffffffffffffffffffffffff1916908160001a905350600a856116109190612a6d565b945061158e565b8093505050505b919050565b61162d8383611691565b61163a600084848461133a565b611679576040517f08c379a0000000000000000000000000000000000000000000000000000000008152600401611670906127ce565b60405180910390fd5b505050565b600080823b905060008111915050919050565b600073ffffffffffffffffffffffffffffffffffffffff168273ffffffffffffffffffffffffffffffffffffffff161415611701576040517f08c379a00000000000000000000000000000000000000000000000000000000081526004016116f890612b4a565b60405180910390fd5b61170a81610cfe565b1561174a576040517f08c379a000000000000000000000000000000000000000000000000000000000815260040161174190612bb6565b60405180910390fd5b61175660008383611335565b6001600360008473ffffffffffffffffffffffffffffffffffffffff1673ffffffffffffffffffffffffffffffffffffffff16815260200190815260200160002060008282546117a69190612706565b92505081905550816002600083815260200190815260200160002060006101000a81548173ffffffffffffffffffffffffffffffffffffffff021916908373ffffffffffffffffffffffffffffffffffffffff160217905550808273ffffffffffffffffffffffffffffffffffffffff16600073ffffffffffffffffffffffffffffffffffffffff167fddf252ad1be2c89b69c2b068fc378daa952ba7f163c4a11628f55a4df523b3ef60405160405180910390a45050565b82805461186b90611ff1565b90600052602060002090601f01602090048101928261188d57600085556118d4565b82601f106118a657805160ff19168380011785556118d4565b828001600101855582156118d4579182015b828111156118d35782518255916020019190600101906118b8565b5b5090506118e191906118e5565b5090565b5b808211156118fe5760008160009055506001016118e6565b5090565b6000604051905090565b600080fd5b600080fd5b60007fffffffff0000000000000000000000000000000000000000000000000000000082169050919050565b61194b81611916565b811461195657600080fd5b50565b60008135905061196881611942565b92915050565b6000602082840312156119845761198361190c565b5b600061199284828501611959565b91505092915050565b60008115159050919050565b6119b08161199b565b82525050565b60006020820190506119cb60008301846119a7565b92915050565b600081519050919050565b600082825260208201905092915050565b60005b83811015611a0b5780820151818401526020810190506119f0565b83811115611a1a576000848401525b50505050565b6000601f19601f8301169050919050565b6000611a3c826119d1565b611a4681856119dc565b9350611a568185602086016119ed565b611a5f81611a20565b840191505092915050565b60006020820190508181036000830152611a848184611a31565b905092915050565b6000819050919050565b611a9f81611a8c565b8114611aaa57600080fd5b50565b600081359050611abc81611a96565b92915050565b600060208284031215611ad857611ad761190c565b5b6000611ae684828501611aad565b91505092915050565b600073ffffffffffffffffffffffffffffffffffffffff82169050919050565b6000611b1a82611aef565b9050919050565b611b2a81611b0f565b82525050565b6000602082019050611b456000830184611b21565b92915050565b611b5481611b0f565b8114611b5f57600080fd5b50565b600081359050611b7181611b4b565b92915050565b60008060408385031215611b8e57611b8d61190c565b5b6000611b9c85828601611b62565b9250506020611bad85828601611aad565b9150509250929050565b600080600060608486031215611bd057611bcf61190c565b5b6000611bde86828701611b62565b9350506020611bef86828701611b62565b9250506040611c0086828701611aad565b9150509250925092565b600060208284031215611c2057611c1f61190c565b5b6000611c2e84828501611b62565b91505092915050565b611c4081611a8c565b82525050565b6000602082019050611c5b6000830184611c37565b92915050565b611c6a8161199b565b8114611c7557600080fd5b50565b600081359050611c8781611c61565b92915050565b60008060408385031215611ca457611ca361190c565b5b6000611cb285828601611b62565b9250506020611cc385828601611c78565b9150509250929050565b600080fd5b600080fd5b7f4e487b7100000000000000000000000000000000000000000000000000000000600052604160045260246000fd5b611d0f82611a20565b810181811067ffffffffffffffff82111715611d2e57611d2d611cd7565b5b80604052505050565b6000611d41611902565b9050611d4d8282611d06565b919050565b600067ffffffffffffffff821115611d6d57611d6c611cd7565b5b611d7682611a20565b9050602081019050919050565b82818337600083830152505050565b6000611da5611da084611d52565b611d37565b905082815260208101848484011115611dc157611dc0611cd2565b5b611dcc848285611d83565b509392505050565b600082601f830112611de957611de8611ccd565b5b8135611df9848260208601611d92565b91505092915050565b60008060008060808587031215611e1c57611e1b61190c565b5b6000611e2a87828801611b62565b9450506020611e3b87828801611b62565b9350506040611e4c87828801611aad565b925050606085013567ffffffffffffffff811115611e6d57611e6c611911565b5b611e7987828801611dd4565b91505092959194509250565b600067ffffffffffffffff821115611ea057611e9f611cd7565b5b611ea982611a20565b9050602081019050919050565b6000611ec9611ec484611e85565b611d37565b905082815260208101848484011115611ee557611ee4611cd2565b5b611ef0848285611d83565b509392505050565b600082601f830112611f0d57611f0c611ccd565b5b8135611f1d848260208601611eb6565b91505092915050565b60008060408385031215611f3d57611f3c61190c565b5b6000611f4b85828601611b62565b925050602083013567ffffffffffffffff811115611f6c57611f6b611911565b5b611f7885828601611ef8565b9150509250929050565b60008060408385031215611f9957611f9861190c565b5b6000611fa785828601611b62565b9250506020611fb885828601611b62565b9150509250929050565b7f4e487b7100000000000000000000000000000000000000000000000000000000600052602260045260246000fd5b6000600282049050600182168061200957607f821691505b6020821081141561201d5761201c611fc2565b5b50919050565b7f4552433732313a20617070726f76656420717565727920666f72206e6f6e657860008201527f697374656e7420746f6b656e0000000000000000000000000000000000000000602082015250565b600061207f602c836119dc565b915061208a82612023565b604082019050919050565b600060208201905081810360008301526120ae81612072565b9050919050565b7f4552433732313a20617070726f76616c20746f2063757272656e74206f776e6560008201527f7200000000000000000000000000000000000000000000000000000000000000602082015250565b60006121116021836119dc565b915061211c826120b5565b604082019050919050565b6000602082019050818103600083015261214081612104565b9050919050565b7f4552433732313a20617070726f76652063616c6c6572206973206e6f74206f7760008201527f6e6572206e6f7220617070726f76656420666f7220616c6c0000000000000000602082015250565b60006121a36038836119dc565b91506121ae82612147565b604082019050919050565b600060208201905081810360008301526121d281612196565b9050919050565b7f4552433732313a207472616e736665722063616c6c6572206973206e6f74206f60008201527f776e6572206e6f7220617070726f766564000000000000000000000000000000602082015250565b60006122356031836119dc565b9150612240826121d9565b604082019050919050565b6000602082019050818103600083015261226481612228565b9050919050565b7f4552433732313a206f776e657220717565727920666f72206e6f6e657869737460008201527f656e7420746f6b656e0000000000000000000000000000000000000000000000602082015250565b60006122c76029836119dc565b91506122d28261226b565b604082019050919050565b600060208201905081810360008301526122f6816122ba565b9050919050565b7f4552433732313a2062616c616e636520717565727920666f7220746865207a6560008201527f726f206164647265737300000000000000000000000000000000000000000000602082015250565b6000612359602a836119dc565b9150612364826122fd565b604082019050919050565b600060208201905081810360008301526123888161234c565b9050919050565b7f4552433732313a20617070726f766520746f2063616c6c657200000000000000600082015250565b60006123c56019836119dc565b91506123d08261238f565b602082019050919050565b600060208201905081810360008301526123f4816123b8565b9050919050565b7f45524337323155524953746f726167653a2055524920717565727920666f722060008201527f6e6f6e6578697374656e7420746f6b656e000000000000000000000000000000602082015250565b60006124576031836119dc565b9150612462826123fb565b604082019050919050565b600060208201905081810360008301526124868161244a565b9050919050565b600081905092915050565b60006124a3826119d1565b6124ad818561248d565b93506124bd8185602086016119ed565b80840191505092915050565b60006124d58285612498565b91506124e18284612498565b91508190509392505050565b7f4552433732313a206f70657261746f7220717565727920666f72206e6f6e657860008201527f697374656e7420746f6b656e0000000000000000000000000000000000000000602082015250565b6000612549602c836119dc565b9150612554826124ed565b604082019050919050565b600060208201905081810360008301526125788161253c565b9050919050565b7f4552433732313a207472616e73666572206f6620746f6b656e2074686174206960008201527f73206e6f74206f776e0000000000000000000000000000000000000000000000602082015250565b60006125db6029836119dc565b91506125e68261257f565b604082019050919050565b6000602082019050818103600083015261260a816125ce565b9050919050565b7f4552433732313a207472616e7366657220746f20746865207a65726f2061646460008201527f7265737300000000000000000000000000000000000000000000000000000000602082015250565b600061266d6024836119dc565b915061267882612611565b604082019050919050565b6000602082019050818103600083015261269c81612660565b9050919050565b7f4e487b7100000000000000000000000000000000000000000000000000000000600052601160045260246000fd5b60006126dd82611a8c565b91506126e883611a8c565b9250828210156126fb576126fa6126a3565b5b828203905092915050565b600061271182611a8c565b915061271c83611a8c565b9250827fffffffffffffffffffffffffffffffffffffffffffffffffffffffffffffffff03821115612751576127506126a3565b5b828201905092915050565b7f4552433732313a207472616e7366657220746f206e6f6e20455243373231526560008201527f63656976657220696d706c656d656e7465720000000000000000000000000000602082015250565b60006127b86032836119dc565b91506127c38261275c565b604082019050919050565b600060208201905081810360008301526127e7816127ab565b9050919050565b7f4552433732314d657461646174613a2055524920717565727920666f72206e6f60008201527f6e6578697374656e7420746f6b656e0000000000000000000000000000000000602082015250565b600061284a602f836119dc565b9150612855826127ee565b604082019050919050565b600060208201905081810360008301526128798161283d565b9050919050565b7f45524337323155524953746f726167653a2055524920736574206f66206e6f6e60008201527f6578697374656e7420746f6b656e000000000000000000000000000000000000602082015250565b60006128dc602e836119dc565b91506128e782612880565b604082019050919050565b6000602082019050818103600083015261290b816128cf565b9050919050565b600081519050919050565b600082825260208201905092915050565b600061293982612912565b612943818561291d565b93506129538185602086016119ed565b61295c81611a20565b840191505092915050565b600060808201905061297c6000830187611b21565b6129896020830186611b21565b6129966040830185611c37565b81810360608301526129a8818461292e565b905095945050505050565b6000815190506129c281611942565b92915050565b6000602082840312156129de576129dd61190c565b5b60006129ec848285016129b3565b91505092915050565b6000612a0082611a8c565b91507fffffffffffffffffffffffffffffffffffffffffffffffffffffffffffffffff821415612a3357612a326126a3565b5b600182019050919050565b7f4e487b7100000000000000000000000000000000000000000000000000000000600052601260045260246000fd5b6000612a7882611a8c565b9150612a8383611a8c565b925082612a9357612a92612a3e565b5b828204905092915050565b6000612aa982611a8c565b9150612ab483611a8c565b925082612ac457612ac3612a3e565b5b828206905092915050565b7f4e487b7100000000000000000000000000000000000000000000000000000000600052603260045260246000fd5b7f4552433732313a206d696e7420746f20746865207a65726f2061646472657373600082015250565b6000612b346020836119dc565b9150612b3f82612afe565b602082019050919050565b60006020820190508181036000830152612b6381612b27565b9050919050565b7f4552433732313a20746f6b656e20616c7265616479206d696e74656400000000600082015250565b6000612ba0601c836119dc565b9150612bab82612b6a565b602082019050919050565b60006020820190508181036000830152612bcf81612b93565b905091905056fea264697066735822122069d0d1df3da08eb130f1093306e24157852bbac3850e467aa6dbc87ef20adde564736f6c634300080b0033",
  "immutableReferences": {},
  "source": "// SPDX-License-Identifier: MIT\r\npragma solidity ^0.8.0;\r\n\r\nimport \"@openzeppelin/contracts/token/ERC721/extensions/ERC721URIStorage.sol\";\r\nimport \"@openzeppelin/contracts/utils/Counters.sol\";\r\n\r\n\r\ncontract GameItem is ERC721URIStorage {\r\n    \r\n    using Counters for Counters.Counter;\r\n\r\n    Counters.Counter private _tokenIdCounter;\r\n\r\n    constructor() ERC721(\"Memory Token\", \"MTT\") {}\r\n\r\n    function mint(address _wallet, string memory _tokenURI) public returns(uint256){\r\n\r\n        uint256 tokenId = _tokenIdCounter.current();\r\n\r\n        _safeMint(_wallet, tokenId);\r\n        _setTokenURI(tokenId, _tokenURI);\r\n\r\n        _tokenIdCounter.increment();\r\n\r\n        return tokenId;\r\n\r\n    }\r\n\r\n}",
  "sourcePath": "C:\\blockchaingame\\contracts\\MemoryToken.sol",
  "compiler": {
    "name": "solc",
    "version": "0.8.11+commit.d7f03943.Emscripten.clang"
  },
  "schemaVersion": "3.4.5",
  "updatedAt": "2022-03-02T04:54:23.099Z",
  "devdoc": {
    "kind": "dev",
    "methods": {
      "approve(address,uint256)": {
        "details": "See {IERC721-approve}."
      },
      "balanceOf(address)": {
        "details": "See {IERC721-balanceOf}."
      },
      "getApproved(uint256)": {
        "details": "See {IERC721-getApproved}."
      },
      "isApprovedForAll(address,address)": {
        "details": "See {IERC721-isApprovedForAll}."
      },
      "name()": {
        "details": "See {IERC721Metadata-name}."
      },
      "ownerOf(uint256)": {
        "details": "See {IERC721-ownerOf}."
      },
      "safeTransferFrom(address,address,uint256)": {
        "details": "See {IERC721-safeTransferFrom}."
      },
      "safeTransferFrom(address,address,uint256,bytes)": {
        "details": "See {IERC721-safeTransferFrom}."
      },
      "setApprovalForAll(address,bool)": {
        "details": "See {IERC721-setApprovalForAll}."
      },
      "supportsInterface(bytes4)": {
        "details": "See {IERC165-supportsInterface}."
      },
      "symbol()": {
        "details": "See {IERC721Metadata-symbol}."
      },
      "tokenURI(uint256)": {
        "details": "See {IERC721Metadata-tokenURI}."
      },
      "transferFrom(address,address,uint256)": {
        "details": "See {IERC721-transferFrom}."
      }
    },
    "version": 1
  },
  "userdoc": {
    "kind": "user",
    "methods": {},
    "version": 1
  }
}